:100000000C945D000C9485000C9485000C94850084
:100010000C9485000C9485000C9485000C9485004C
:100020000C9485000C9485000C9485000C9485003C
:100030000C9485000C9485000C9485000C9485002C
:100040000C94CC030C9485000C9485000C948500D2
:100050000C9485000C9485000C9485000C9485000C
:100060000C9485000C9485000000000024002700FB
:100070002A0000000000250028002B0004040404CE
:100080000404040402020202020203030303030342
:10009000010204081020408001020408102001021F
:1000A00004081020000000080002010000030407FB
:1000B0000000000000000000410611241FBECFEF29
:1000C000D8E0DEBFCDBF11E0A0E0B1E0E4E9F1E1AE
:1000D00002C005900D92A431B107D9F721E0A4E147
:1000E000B1E001C01D92A533B207E1F710E0CDE504
:1000F000D0E004C02197FE010E948106CC35D107D3
:10010000C9F70E9416040C94C8080C940000E091F2
:100110001D01F0911E010190F081E02D682F8DE10D
:1001200091E00994CF92DF92EF92FF920F931F9389
:10013000CF93DF936C017A018B01C0E0D0E0CE1544
:10014000DF0589F0D8016D918D01D601ED91FC910B
:100150000190F081E02DC6010995892B11F47E01F3
:1001600002C02196ECCFC701DF91CF911F910F9173
:10017000FF90EF90DF90CF90089590E0FC01EC5558
:10018000FF4F3491FC01E057FF4F2491FC01E458EC
:10019000FF4FE491EE2309F43BC0332339F13330B0
:1001A00091F038F43130A9F0323001F584B58F7D0B
:1001B00012C0373091F03830A1F03430B9F480916A
:1001C00080008F7D03C0809180008F7780938000B6
:1001D0000DC084B58F7784BD09C08091B0008F7742
:1001E00003C08091B0008F7D8093B000F0E0EE0FEF
:1001F000FF1FEE58FF4FA591B4918FB7F894EC9183
:10020000611103C020952E2301C02E2B2C938FBF8C
:100210000895CF93DF9390E0FC01E057FF4F2491C6
:10022000FC01E458FF4F8491882361F190E0880F2E
:10023000991FFC01E859FF4FC591D491FC01EE587C
:10024000FF4FA591B491611109C09FB7F8948881BF
:10025000209582238883EC912E230BC0623061F4B9
:100260009FB7F8943881822F809583238883EC91FF
:100270002E2B2C939FBF06C08FB7F894E8812E2BAE
:1002800028838FBFDF91CF9108958E3008F08E5074
:100290008770806480937C0080917A008064809372
:1002A0007A0080917A0086FDFCCF809178002091C1
:1002B000790090E0922B0895CF93DF93EC0160E0FA
:1002C0008E810E94BD0061E08E810E94BD0060E0D1
:1002D0008E810E94BD008BE891E00197F1F7DF91DC
:1002E000CF910895CF92DF92EF92FF920F931F93D9
:1002F000CF93DF937C016C0187E0C80ED11CC0E076
:10030000D0E0062F10E0B8010C2E02C0759567955D
:100310000A94E2F76170F60181916F010E94BD00BD
:100320002196C430D10579F7C701DF91CF911F9194
:100330000F91FF90EF90DF90CF900C945C01CF92E3
:10034000DF92EF92FF920F931F93CF93DF93EC0115
:10035000F62E642F8C810E94BD008D818F3F19F095
:1003600060E00E94BD008F850F2D10E084FF25C046
:100370006E0187E0C80ED11CE12CF12CB8010E2CC7
:1003800002C0759567950A94E2F76170F601819154
:100390006F010E94BD00FFEFEF1AFF0A88E0E81628
:1003A000F10461F7CE01DF91CF911F910F91FF9082
:1003B000EF90DF90CF900C945C01B80184E07595CC
:1003C00067958A95E1F7CE010E9472016F2DCE01EB
:1003D000DF91CF911F910F91FF90EF90DF90CF9021
:1003E0000C94720141E00E949F0181E090E0089529
:1003F00040E00C949F01EF92FF920F931F93CF93D5
:10040000DF93EC01623018F08F8588608F876B8BEB
:100410001C8A80E48D8B80E18E8B80E58F8B61E080
:100420008C810E9409018D818F3F19F061E00E944B
:10043000090161E08E810E9409017E0187E0E80EDA
:10044000F11C00E010E08F8584FD03C084E090E0A3
:1004500002C088E090E0081719074CF461E0F7014A
:1004600081917F010E9409010F5F1F4FECCF8BE349
:100470009DE00197F1F760E08C810E94BD0060E093
:100480008E810E94BD008D818F3F19F060E00E9437
:10049000BD006F8564FD1DC063E0CE010E94720146
:1004A0000BE416E4C8010197F1F763E0CE010E9466
:1004B0007201C8010197F1F763E0CE010E94720159
:1004C00083E592E00197F1F762E0CE010E947201AC
:1004D00016C06062CE010E94F8018BE496E4019799
:1004E000F1F76F856062CE010E94F80183E592E02A
:1004F0000197F1F76F856062CE010E94F8016F8568
:100500006062CE010E94F80184E0888B6CE0CE012D
:100510000E94F80161E0CE010E94F8018BE39FE1A7
:100520000197F1F782E0898B66E0CE01DF91CF91F0
:100530001F910F91FF90EF900C94F801643008F038
:1005400063E090913001691710F06FEF690FE62FAB
:10055000F0E0E35EFE4F9489682F690F60688DE1DB
:1005600091E00C94F801009769F0FC0101900020E3
:10057000E9F73197AF01481B590BBC018DE191E0C0
:100580000C94920080E090E008958F929F92AF9239
:10059000BF920F931F93CF93DF93CDB7DEB7A19791
:1005A0000FB6F894DEBF0FBECDBF19A2423008F4DB
:1005B0004AE08E010F5D1F4F842E912CA12CB12C8F
:1005C000A50194010E945F06E62FB901CA010150FE
:1005D0001109EA3014F4E05D01C0E95CD801EC9344
:1005E000232B242B252B61F7C8010E94B302A1966F
:1005F0000FB6F894DEBF0FBECDBFDF91CF911F9134
:100600000F91BF90AF909F908F9008958F929F927F
:10061000AF92BF92CF92DF92EF92FF92CF93DF9390
:100620006B017C019B01AC010E94BE08882319F07C
:1006300088E091E027C046015701E894B7F82FEF12
:100640003FEF4FE75FE7C501B4010E94BE0881118B
:100650000DC02FEF3FEF4FE75FE7C501B4010E94E8
:10066000F40618161CF48CE091E00CC02FEF3FEF5D
:100670004FE75FE4C701B6010E944C08181674F4F6
:1006800080E191E0DF91CF91FF90EF90DF90CF90EC
:10069000BF90AF909F908F900C94B3022FEF3FEFDD
:1006A0004FE75FECC701B6010E94F40687FDE8CF73
:1006B00020E030E0A901C701B6010E94F40687FFDF
:1006C00009C08DE20E948700EC01F7FAF094F7F878
:1006D000F09402C0C0E0D0E02AE037ED43EA5BE3EB
:1006E000C701B6010E9488064B015C010E946B079E
:1006F0006B017C010E949A079B01AC01C501B4010A
:100700000E9487064B015C014AE0C701B6010E94C6
:10071000C502C80FD91F8EE20E948700C80FD91FDB
:1007200020E030E040E251E4C501B4010E945108EC
:100730004B015C010E946B076B01E12CF12C4AE03C
:10074000C701B6010E94C502C80FD91FC701B60173
:100750000E949A079B01AC01C501B4010E94870663
:1007600020E030E040E251E40E9451080E946B0713
:1007700080E090E04AE00E94C5028C0F9D1FDF914F
:10078000CF91FF90EF90DF90CF90BF90AF909F9070
:100790008F9008950E94C3081F920F920FB60F9278
:1007A00011242F933F938F939F93AF93BF93809187
:1007B000190190911A01A0911B01B0911C01309177
:1007C000180123E0230F2D3720F40196A11DB11D40
:1007D00005C026E8230F0296A11DB11D2093180124
:1007E0008093190190931A01A0931B01B0931C01EF
:1007F0008091140190911501A0911601B0911701FB
:100800000196A11DB11D8093140190931501A09331
:100810001601B0931701BF91AF919F918F913F91B6
:100820002F910F900FBE0F901F901895789484B55C
:10083000826084BD84B5816084BD85B5826085BDDC
:1008400085B5816085BD80916E00816080936E006A
:10085000109281008091810082608093810080915C
:10086000810081608093810080918000816080930D
:1008700080008091B10084608093B1008091B000CD
:1008800081608093B00080917A00846080937A00C8
:1008900080917A00826080937A0080917A008160F2
:1008A00080937A0080917A00806880937A00109219
:1008B000C10061E08DE00E94090161E08CE00E94CE
:1008C000090161E083E00E94090161E082E00E9489
:1008D000090161E081E00E94090161E080E00E947D
:1008E000090160E08EE00E94090160E08FE00E9453
:1008F000090160E080E10E94090162E08DE191E080
:100900000E94FB01C0E0D0E08EE00E944501BC01E6
:10091000990F880B990B0E949C072AE038E240EA65
:100920005BE30E94510820E030E040E250E40E9486
:1009300051086B017C0160E080E00E949E0286E528
:100940000E94870060E081E00E949E028DE20E948A
:10095000870060E082E00E949E02C701B6010E940B
:1009600006038FE00E9445018C0160E088E00E9450
:100970009E0284E50E94870060E089E00E949E025A
:100980008DE20E94870060E08AE00E949E02B8012A
:10099000110F880B990B0E949C0720E030E040E883
:1009A0005AE30E94510820E030E44CE955E40E94EB
:1009B000510820E030E040E251E40E94F9060E9434
:1009C000060380E10E9445018C0161E080E00E9405
:1009D0009E0289E40E94870061E081E00E949E02FD
:1009E0008DE20E94870061E082E00E949E02B801D1
:1009F000110F880B990B0E949C0720E030E040E823
:100A00005AE30E94510820E030E040EA50E40E949E
:100A1000510820E030E040E250E40E94870622E0E6
:100A20003BE247E85DE30E94F9062FE832EC45EF30
:100A30005CE30E9488060E94060320E030E048E460
:100A400051E4C701B6010E944C0818165CF42AE96B
:100A500039E949E451E4C701B6010E94F4061816C9
:100A60000CF0BEC022E538EB46E451E4C701B60104
:100A70000E944C0818165CF420E030E048E451E491
:100A8000C701B6010E94F40618160CF0ACC028EBA2
:100A90003EE145E451E4C701B6010E944C08181636
:100AA0005CF422E538EB46E451E4C701B6010E944C
:100AB000F40618160CF09AC023E333E343E451E440
:100AC000C701B6010E944C0818165CF428EB3EE101
:100AD00045E451E4C701B6010E94F40618160CF073
:100AE00088C023EC35EF40E451E4C701B6010E9411
:100AF0004C0818165CF423E333E343E451E4C701E4
:100B0000B6010E94F40618160CF076C026E636E60A
:100B10004EE351E4C701B6010E944C0818165CF47C
:100B200023EC35EF40E451E4C701B6010E94F4061E
:100B300018160CF064C020E030E04CE351E4C7012B
:100B4000B6010E944C0818165CF426E636E64EE321
:100B500051E4C701B6010E94F40618160CF052C009
:100B60002EEA37E449E351E4C701B6010E944C087C
:100B700018165CF420E030E04CE351E4C701B60104
:100B80000E94F40618160CF040C023EC35EF44E345
:100B900051E4C701B6010E944C08181654F42EEA1D
:100BA00037E449E351E4C701B6010E94F406181680
:100BB0007CF520E030E048E251E4C701B6010E9434
:100BC0004C08181654F423EC35EF44E351E4C70104
:100BD000B6010E94F4061816F4F400E010E01DC0FF
:100BE00004E610E01AC00AE510E017C000E510E0C6
:100BF00014C006E410E011C00CE310E00EC002E3E4
:100C000010E00BC008E210E008C00EE110E005C0E3
:100C100004E110E002C00AE010E061E087E00E9419
:100C20009E0283E50E94870061E088E00E949E02A8
:100C300080E30E94870061E089E00E949E0283E4D5
:100C40000E94870061E08AE00E949E028DE20E947D
:100C5000870061E08BE00E949E02B801110F880BB3
:100C6000990B4AE00E94C50261E08EE00E949E025C
:100C700085E20E948700209709F446CE0E9400007A
:100C800043CEEDE1F1E01382128284E091E09183A2
:100C900080838DE084838FEF85838CE0868383E07F
:100CA000878382E0808781E081871286138614869D
:100CB00015861686178661E0CF010C94FB01A1E230
:100CC0001A2EAA1BBB1BFD010DC0AA1FBB1FEE1FC6
:100CD000FF1FA217B307E407F50720F0A21BB30B11
:100CE000E40BF50B661F771F881F991F1A9469F78D
:100CF00060957095809590959B01AC01BD01CF01E9
:100D00000895EE0FFF1F0590F491E02D09945058BF
:100D1000BB27AA270E949F060C9412080E94040871
:100D200038F00E940B0820F039F49F3F19F426F4A4
:100D30000C9401080EF4E095E7FB0C94FB07E92FF7
:100D40000E94230858F3BA176207730784079507B0
:100D500020F079F4A6F50C9445080EF4E0950B2EDE
:100D6000BA2FA02D0B01B90190010C01CA01A001FD
:100D70001124FF27591B99F0593F50F4503E68F158
:100D80001A16F040A22F232F342F4427585FF3CF99
:100D9000469537952795A795F0405395C9F77EF46A
:100DA0001F16BA0B620B730B840BBAF09150A1F0B3
:100DB000FF0FBB1F661F771F881FC2F70EC0BA0F39
:100DC000621F731F841F48F4879577956795B795C1
:100DD000F7959E3F08F0B0CF9395880F08F09927BC
:100DE000EE0F9795879508950E94D70708F481E044
:100DF00008950E940D070C9412080E940B0858F0E9
:100E00000E94040840F029F45F3F29F00C94FB078E
:100E100051110C9446080C9401080E94230868F3B1
:100E20009923B1F3552391F3951B550BBB27AA27A3
:100E300062177307840738F09F5F5F4F220F331FDD
:100E4000441FAA1FA9F335D00E2E3AF0E0E832D0A5
:100E500091505040E695001CCAF72BD0FE2F29D0A8
:100E6000660F771F881FBB1F261737074807AB077A
:100E7000B0E809F0BB0B802DBF01FF2793585F4FEF
:100E80003AF09E3F510578F00C94FB070C9446080D
:100E90005F3FE4F3983ED4F3869577956795B795D1
:100EA000F7959F5FC9F7880F911D9695879597F9DC
:100EB0000895E1E0660F771F881FBB1F6217730755
:100EC0008407BA0720F0621B730B840BBA0BEE1F6A
:100ED00088F7E09508950E942B0888F09F5798F0B6
:100EE000B92F9927B751B0F0E1F0660F771F881F2F
:100EF000991F1AF0BA95C9F714C0B13091F00E9449
:100F00004508B1E008950C944508672F782F88278D
:100F1000B85F39F0B93FCCF3869577956795B3956F
:100F2000D9F73EF490958095709561957F4F8F4FDE
:100F30009F4F0895E89409C097FB3EF490958095E3
:100F4000709561957F4F8F4F9F4F9923A9F0F92F8F
:100F500096E9BB279395F695879577956795B7950D
:100F6000F111F8CFFAF4BB0F11F460FF1BC06F5FF3
:100F70007F4F8F4F9F4F16C0882311F096E911C005
:100F8000772321F09EE8872F762F05C0662371F026
:100F900096E8862F70E060E02AF09A95660F771F3A
:100FA000881FDAF7880F9695879597F90895990F16
:100FB0000008550FAA0BE0E8FEEF16161706E80723
:100FC000F907C0F012161306E407F50798F0621B44
:100FD000730B840B950B39F40A2661F0232B242B19
:100FE000252B21F408950A2609F4A140A6958FEF38
:100FF000811D811D089597F99F6780E870E060E08A
:1010000008959FEF80EC089500240A9416161706A1
:1010100018060906089500240A94121613061406E9
:1010200005060895092E0394000C11F4882352F04C
:10103000BB0F40F4BF2B11F460FF04C06F5F7F4F04
:101040008F4F9F4F089557FD9058440F551F59F0EB
:101050005F3F71F04795880F97FB991F61F09F3FA5
:1010600079F087950895121613061406551FF2CFCE
:101070004695F1DF08C0161617061806991FF1CF1E
:1010800086957105610508940895E894BB27662745
:101090007727CB0197F908950E94D70708F48FEFBF
:1010A00008950E9464080C9412080E94040838F005
:1010B0000E940B0820F0952311F00C94FB070C9470
:1010C000010811240C9446080E94230870F3959F90
:1010D000C1F3950F50E0551F629FF001729FBB272F
:1010E000F00DB11D639FAA27F00DB11DAA1F649FCB
:1010F0006627B00DA11D661F829F2227B00DA11D7E
:10110000621F739FB00DA11D621F839FA00D611D03
:10111000221F749F3327A00D611D231F849F600D24
:10112000211D822F762F6A2F11249F5750409AF04D
:10113000F1F088234AF0EE0FFF1FBB1F661F771FD9
:10114000881F91505040A9F79E3F510580F00C94A4
:10115000FB070C9446085F3FE4F3983ED4F3869572
:1011600077956795B795F795E7959F5FC1F7FE2B44
:10117000880F911D9695879597F908950E94D70736
:10118000880B990B089581E090E0F8940C94C808BE
:04119000F894FFCF01
:1011940000000000F20192006E616E00696E66004C
:0411A4006F766600FC
:107E0000112484B714BE81FFF0D085E080938100F7
:107E100082E08093C00088E18093C10086E0809377
:107E2000C20080E18093C4008EE0C9D0259A86E02C
:107E300020E33CEF91E0309385002093840096BBD3
:107E4000B09BFECF1D9AA8958150A9F7CC24DD24C4
:107E500088248394B5E0AB2EA1E19A2EF3E0BF2EE7
:107E6000A2D0813461F49FD0082FAFD0023811F036
:107E7000013811F484E001C083E08DD089C08234E0
:107E800011F484E103C0853419F485E0A6D080C0E4
:107E9000853579F488D0E82EFF2485D0082F10E0AE
:107EA000102F00270E291F29000F111F8ED06801E7
:107EB0006FC0863521F484E090D080E0DECF843638
:107EC00009F040C070D06FD0082F6DD080E0C81688
:107ED00080E7D80618F4F601B7BEE895C0E0D1E017
:107EE00062D089930C17E1F7F0E0CF16F0E7DF06D8
:107EF00018F0F601B7BEE89568D007B600FCFDCFD4
:107F0000A601A0E0B1E02C9130E011968C91119780
:107F100090E0982F8827822B932B1296FA010C0160
:107F200087BEE89511244E5F5F4FF1E0A038BF0790
:107F300051F7F601A7BEE89507B600FCFDCF97BE46
:107F4000E89526C08437B1F42ED02DD0F82E2BD052
:107F50003CD0F601EF2C8F010F5F1F4F84911BD097
:107F6000EA94F801C1F70894C11CD11CFA94CF0C13
:107F7000D11C0EC0853739F428D08EE10CD085E9AC
:107F80000AD08FE07ACF813511F488E018D01DD067
:107F900080E101D065CF982F8091C00085FFFCCF94
:107FA0009093C60008958091C00087FFFCCF809118
:107FB000C00084FD01C0A8958091C6000895E0E648
:107FC000F0E098E1908380830895EDDF803219F02E
:107FD00088E0F5DFFFCF84E1DECF1F93182FE3DFCA
:107FE0001150E9F7F2DF1F91089580E0E8DFEE27F6
:047FF000FF270994CA
:027FFE00040479
:0400000300007E007B
:00000001FF
